{
	"contracts/Section5Project.sol": {
		"SmartWallet": {
			"abi": [
				{
					"inputs": [],
					"stateMutability": "nonpayable",
					"type": "constructor"
				},
				{
					"inputs": [
						{
							"internalType": "address payable",
							"name": "_to",
							"type": "address"
						},
						{
							"internalType": "uint256",
							"name": "_amount",
							"type": "uint256"
						},
						{
							"internalType": "bytes",
							"name": "_payload",
							"type": "bytes"
						}
					],
					"name": "transfer",
					"outputs": [
						{
							"internalType": "bytes",
							"name": "",
							"type": "bytes"
						}
					],
					"stateMutability": "nonpayable",
					"type": "function"
				},
				{
					"stateMutability": "payable",
					"type": "receive"
				}
			],
			"devdoc": {
				"kind": "dev",
				"methods": {},
				"version": 1
			},
			"evm": {
				"assembly": "    /* \"contracts/Section5Project.sol\":62:522  contract SmartWallet {... */\n  mstore(0x40, 0x80)\n    /* \"contracts/Section5Project.sol\":120:180  constructor() {... */\n  callvalue\n  dup1\n  iszero\n  tag_1\n  jumpi\n  0x00\n  dup1\n  revert\ntag_1:\n  pop\n    /* \"contracts/Section5Project.sol\":161:171  msg.sender */\n  caller\n    /* \"contracts/Section5Project.sol\":145:150  owner */\n  0x00\n  dup1\n    /* \"contracts/Section5Project.sol\":145:172  owner = payable(msg.sender) */\n  0x0100\n  exp\n  dup2\n  sload\n  dup2\n  0xffffffffffffffffffffffffffffffffffffffff\n  mul\n  not\n  and\n  swap1\n  dup4\n  0xffffffffffffffffffffffffffffffffffffffff\n  and\n  mul\n  or\n  swap1\n  sstore\n  pop\n    /* \"contracts/Section5Project.sol\":62:522  contract SmartWallet {... */\n  dataSize(sub_0)\n  dup1\n  dataOffset(sub_0)\n  0x00\n  codecopy\n  0x00\n  return\nstop\n\nsub_0: assembly {\n        /* \"contracts/Section5Project.sol\":62:522  contract SmartWallet {... */\n      mstore(0x40, 0x80)\n      jumpi(tag_1, lt(calldatasize, 0x04))\n      shr(0xe0, calldataload(0x00))\n      dup1\n      0xbe45fd62\n      eq\n      tag_3\n      jumpi\n      jump(tag_2)\n    tag_1:\n      jumpi(tag_2, calldatasize)\n      stop\n    tag_2:\n      0x00\n      dup1\n      revert\n        /* \"contracts/Section5Project.sol\":188:481  function transfer(address payable _to, uint _amount, bytes memory _payload) public returns(bytes memory){... */\n    tag_3:\n      callvalue\n      dup1\n      iszero\n      tag_6\n      jumpi\n      0x00\n      dup1\n      revert\n    tag_6:\n      pop\n      tag_7\n      0x04\n      dup1\n      calldatasize\n      sub\n      dup2\n      add\n      swap1\n      tag_8\n      swap2\n      swap1\n      tag_9\n      jump\t// in\n    tag_8:\n      tag_10\n      jump\t// in\n    tag_7:\n      mload(0x40)\n      tag_11\n      swap2\n      swap1\n      tag_12\n      jump\t// in\n    tag_11:\n      mload(0x40)\n      dup1\n      swap2\n      sub\n      swap1\n      return\n    tag_10:\n        /* \"contracts/Section5Project.sol\":279:291  bytes memory */\n      0x60\n        /* \"contracts/Section5Project.sol\":325:330  owner */\n      0x00\n      dup1\n      sload\n      swap1\n      0x0100\n      exp\n      swap1\n      div\n      0xffffffffffffffffffffffffffffffffffffffff\n      and\n        /* \"contracts/Section5Project.sol\":311:330  msg.sender == owner */\n      0xffffffffffffffffffffffffffffffffffffffff\n      and\n        /* \"contracts/Section5Project.sol\":311:321  msg.sender */\n      caller\n        /* \"contracts/Section5Project.sol\":311:330  msg.sender == owner */\n      0xffffffffffffffffffffffffffffffffffffffff\n      and\n      eq\n        /* \"contracts/Section5Project.sol\":303:331  require(msg.sender == owner) */\n      tag_14\n      jumpi\n      0x00\n      dup1\n      revert\n    tag_14:\n        /* \"contracts/Section5Project.sol\":343:355  bool success */\n      0x00\n        /* \"contracts/Section5Project.sol\":357:380  bytes memory returnData */\n      dup1\n        /* \"contracts/Section5Project.sol\":384:387  _to */\n      dup6\n        /* \"contracts/Section5Project.sol\":384:392  _to.call */\n      0xffffffffffffffffffffffffffffffffffffffff\n      and\n        /* \"contracts/Section5Project.sol\":400:407  _amount */\n      dup6\n        /* \"contracts/Section5Project.sol\":409:417  _payload */\n      dup6\n        /* \"contracts/Section5Project.sol\":384:418  _to.call{value: _amount}(_payload) */\n      mload(0x40)\n      tag_15\n      swap2\n      swap1\n      tag_16\n      jump\t// in\n    tag_15:\n      0x00\n      mload(0x40)\n      dup1\n      dup4\n      sub\n      dup2\n      dup6\n      dup8\n      gas\n      call\n      swap3\n      pop\n      pop\n      pop\n      returndatasize\n      dup1\n      0x00\n      dup2\n      eq\n      tag_19\n      jumpi\n      mload(0x40)\n      swap2\n      pop\n      and(add(returndatasize, 0x3f), not(0x1f))\n      dup3\n      add\n      0x40\n      mstore\n      returndatasize\n      dup3\n      mstore\n      returndatasize\n      0x00\n      0x20\n      dup5\n      add\n      returndatacopy\n      jump(tag_18)\n    tag_19:\n      0x60\n      swap2\n      pop\n    tag_18:\n      pop\n        /* \"contracts/Section5Project.sol\":342:418  (bool success, bytes memory returnData) = _to.call{value: _amount}(_payload) */\n      swap2\n      pop\n      swap2\n      pop\n        /* \"contracts/Section5Project.sol\":437:444  success */\n      dup2\n        /* \"contracts/Section5Project.sol\":429:445  require(success) */\n      tag_20\n      jumpi\n      0x00\n      dup1\n      revert\n    tag_20:\n        /* \"contracts/Section5Project.sol\":463:473  returnData */\n      dup1\n        /* \"contracts/Section5Project.sol\":456:473  return returnData */\n      swap3\n      pop\n      pop\n      pop\n        /* \"contracts/Section5Project.sol\":188:481  function transfer(address payable _to, uint _amount, bytes memory _payload) public returns(bytes memory){... */\n      swap4\n      swap3\n      pop\n      pop\n      pop\n      jump\t// out\n        /* \"#utility.yul\":7:82   */\n    tag_21:\n        /* \"#utility.yul\":40:46   */\n      0x00\n        /* \"#utility.yul\":73:75   */\n      0x40\n        /* \"#utility.yul\":67:76   */\n      mload\n        /* \"#utility.yul\":57:76   */\n      swap1\n      pop\n        /* \"#utility.yul\":7:82   */\n      swap1\n      jump\t// out\n        /* \"#utility.yul\":88:205   */\n    tag_22:\n        /* \"#utility.yul\":197:198   */\n      0x00\n        /* \"#utility.yul\":194:195   */\n      dup1\n        /* \"#utility.yul\":187:199   */\n      revert\n        /* \"#utility.yul\":211:328   */\n    tag_23:\n        /* \"#utility.yul\":320:321   */\n      0x00\n        /* \"#utility.yul\":317:318   */\n      dup1\n        /* \"#utility.yul\":310:322   */\n      revert\n        /* \"#utility.yul\":334:460   */\n    tag_24:\n        /* \"#utility.yul\":371:378   */\n      0x00\n        /* \"#utility.yul\":411:453   */\n      0xffffffffffffffffffffffffffffffffffffffff\n        /* \"#utility.yul\":404:409   */\n      dup3\n        /* \"#utility.yul\":400:454   */\n      and\n        /* \"#utility.yul\":389:454   */\n      swap1\n      pop\n        /* \"#utility.yul\":334:460   */\n      swap2\n      swap1\n      pop\n      jump\t// out\n        /* \"#utility.yul\":466:570   */\n    tag_25:\n        /* \"#utility.yul\":511:518   */\n      0x00\n        /* \"#utility.yul\":540:564   */\n      tag_53\n        /* \"#utility.yul\":558:563   */\n      dup3\n        /* \"#utility.yul\":540:564   */\n      tag_24\n      jump\t// in\n    tag_53:\n        /* \"#utility.yul\":529:564   */\n      swap1\n      pop\n        /* \"#utility.yul\":466:570   */\n      swap2\n      swap1\n      pop\n      jump\t// out\n        /* \"#utility.yul\":576:714   */\n    tag_26:\n        /* \"#utility.yul\":657:689   */\n      tag_55\n        /* \"#utility.yul\":683:688   */\n      dup2\n        /* \"#utility.yul\":657:689   */\n      tag_25\n      jump\t// in\n    tag_55:\n        /* \"#utility.yul\":650:655   */\n      dup2\n        /* \"#utility.yul\":647:690   */\n      eq\n        /* \"#utility.yul\":637:708   */\n      tag_56\n      jumpi\n        /* \"#utility.yul\":704:705   */\n      0x00\n        /* \"#utility.yul\":701:702   */\n      dup1\n        /* \"#utility.yul\":694:706   */\n      revert\n        /* \"#utility.yul\":637:708   */\n    tag_56:\n        /* \"#utility.yul\":576:714   */\n      pop\n      jump\t// out\n        /* \"#utility.yul\":720:875   */\n    tag_27:\n        /* \"#utility.yul\":774:779   */\n      0x00\n        /* \"#utility.yul\":812:818   */\n      dup2\n        /* \"#utility.yul\":799:819   */\n      calldataload\n        /* \"#utility.yul\":790:819   */\n      swap1\n      pop\n        /* \"#utility.yul\":828:869   */\n      tag_58\n        /* \"#utility.yul\":863:868   */\n      dup2\n        /* \"#utility.yul\":828:869   */\n      tag_26\n      jump\t// in\n    tag_58:\n        /* \"#utility.yul\":720:875   */\n      swap3\n      swap2\n      pop\n      pop\n      jump\t// out\n        /* \"#utility.yul\":881:958   */\n    tag_28:\n        /* \"#utility.yul\":918:925   */\n      0x00\n        /* \"#utility.yul\":947:952   */\n      dup2\n        /* \"#utility.yul\":936:952   */\n      swap1\n      pop\n        /* \"#utility.yul\":881:958   */\n      swap2\n      swap1\n      pop\n      jump\t// out\n        /* \"#utility.yul\":964:1086   */\n    tag_29:\n        /* \"#utility.yul\":1037:1061   */\n      tag_61\n        /* \"#utility.yul\":1055:1060   */\n      dup2\n        /* \"#utility.yul\":1037:1061   */\n      tag_28\n      jump\t// in\n    tag_61:\n        /* \"#utility.yul\":1030:1035   */\n      dup2\n        /* \"#utility.yul\":1027:1062   */\n      eq\n        /* \"#utility.yul\":1017:1080   */\n      tag_62\n      jumpi\n        /* \"#utility.yul\":1076:1077   */\n      0x00\n        /* \"#utility.yul\":1073:1074   */\n      dup1\n        /* \"#utility.yul\":1066:1078   */\n      revert\n        /* \"#utility.yul\":1017:1080   */\n    tag_62:\n        /* \"#utility.yul\":964:1086   */\n      pop\n      jump\t// out\n        /* \"#utility.yul\":1092:1231   */\n    tag_30:\n        /* \"#utility.yul\":1138:1143   */\n      0x00\n        /* \"#utility.yul\":1176:1182   */\n      dup2\n        /* \"#utility.yul\":1163:1183   */\n      calldataload\n        /* \"#utility.yul\":1154:1183   */\n      swap1\n      pop\n        /* \"#utility.yul\":1192:1225   */\n      tag_64\n        /* \"#utility.yul\":1219:1224   */\n      dup2\n        /* \"#utility.yul\":1192:1225   */\n      tag_29\n      jump\t// in\n    tag_64:\n        /* \"#utility.yul\":1092:1231   */\n      swap3\n      swap2\n      pop\n      pop\n      jump\t// out\n        /* \"#utility.yul\":1237:1354   */\n    tag_31:\n        /* \"#utility.yul\":1346:1347   */\n      0x00\n        /* \"#utility.yul\":1343:1344   */\n      dup1\n        /* \"#utility.yul\":1336:1348   */\n      revert\n        /* \"#utility.yul\":1360:1477   */\n    tag_32:\n        /* \"#utility.yul\":1469:1470   */\n      0x00\n        /* \"#utility.yul\":1466:1467   */\n      dup1\n        /* \"#utility.yul\":1459:1471   */\n      revert\n        /* \"#utility.yul\":1483:1585   */\n    tag_33:\n        /* \"#utility.yul\":1524:1530   */\n      0x00\n        /* \"#utility.yul\":1575:1577   */\n      0x1f\n        /* \"#utility.yul\":1571:1578   */\n      not\n        /* \"#utility.yul\":1566:1568   */\n      0x1f\n        /* \"#utility.yul\":1559:1564   */\n      dup4\n        /* \"#utility.yul\":1555:1569   */\n      add\n        /* \"#utility.yul\":1551:1579   */\n      and\n        /* \"#utility.yul\":1541:1579   */\n      swap1\n      pop\n        /* \"#utility.yul\":1483:1585   */\n      swap2\n      swap1\n      pop\n      jump\t// out\n        /* \"#utility.yul\":1591:1771   */\n    tag_34:\n        /* \"#utility.yul\":1639:1716   */\n      0x4e487b7100000000000000000000000000000000000000000000000000000000\n        /* \"#utility.yul\":1636:1637   */\n      0x00\n        /* \"#utility.yul\":1629:1717   */\n      mstore\n        /* \"#utility.yul\":1736:1740   */\n      0x41\n        /* \"#utility.yul\":1733:1734   */\n      0x04\n        /* \"#utility.yul\":1726:1741   */\n      mstore\n        /* \"#utility.yul\":1760:1764   */\n      0x24\n        /* \"#utility.yul\":1757:1758   */\n      0x00\n        /* \"#utility.yul\":1750:1765   */\n      revert\n        /* \"#utility.yul\":1777:2058   */\n    tag_35:\n        /* \"#utility.yul\":1860:1887   */\n      tag_70\n        /* \"#utility.yul\":1882:1886   */\n      dup3\n        /* \"#utility.yul\":1860:1887   */\n      tag_33\n      jump\t// in\n    tag_70:\n        /* \"#utility.yul\":1852:1858   */\n      dup2\n        /* \"#utility.yul\":1848:1888   */\n      add\n        /* \"#utility.yul\":1990:1996   */\n      dup2\n        /* \"#utility.yul\":1978:1988   */\n      dup2\n        /* \"#utility.yul\":1975:1997   */\n      lt\n        /* \"#utility.yul\":1954:1972   */\n      0xffffffffffffffff\n        /* \"#utility.yul\":1942:1952   */\n      dup3\n        /* \"#utility.yul\":1939:1973   */\n      gt\n        /* \"#utility.yul\":1936:1998   */\n      or\n        /* \"#utility.yul\":1933:2021   */\n      iszero\n      tag_71\n      jumpi\n        /* \"#utility.yul\":2001:2019   */\n      tag_72\n      tag_34\n      jump\t// in\n    tag_72:\n        /* \"#utility.yul\":1933:2021   */\n    tag_71:\n        /* \"#utility.yul\":2041:2051   */\n      dup1\n        /* \"#utility.yul\":2037:2039   */\n      0x40\n        /* \"#utility.yul\":2030:2052   */\n      mstore\n        /* \"#utility.yul\":1820:2058   */\n      pop\n        /* \"#utility.yul\":1777:2058   */\n      pop\n      pop\n      jump\t// out\n        /* \"#utility.yul\":2064:2193   */\n    tag_36:\n        /* \"#utility.yul\":2098:2104   */\n      0x00\n        /* \"#utility.yul\":2125:2145   */\n      tag_74\n      tag_21\n      jump\t// in\n    tag_74:\n        /* \"#utility.yul\":2115:2145   */\n      swap1\n      pop\n        /* \"#utility.yul\":2154:2187   */\n      tag_75\n        /* \"#utility.yul\":2182:2186   */\n      dup3\n        /* \"#utility.yul\":2174:2180   */\n      dup3\n        /* \"#utility.yul\":2154:2187   */\n      tag_35\n      jump\t// in\n    tag_75:\n        /* \"#utility.yul\":2064:2193   */\n      swap2\n      swap1\n      pop\n      jump\t// out\n        /* \"#utility.yul\":2199:2506   */\n    tag_37:\n        /* \"#utility.yul\":2260:2264   */\n      0x00\n        /* \"#utility.yul\":2350:2368   */\n      0xffffffffffffffff\n        /* \"#utility.yul\":2342:2348   */\n      dup3\n        /* \"#utility.yul\":2339:2369   */\n      gt\n        /* \"#utility.yul\":2336:2392   */\n      iszero\n      tag_77\n      jumpi\n        /* \"#utility.yul\":2372:2390   */\n      tag_78\n      tag_34\n      jump\t// in\n    tag_78:\n        /* \"#utility.yul\":2336:2392   */\n    tag_77:\n        /* \"#utility.yul\":2410:2439   */\n      tag_79\n        /* \"#utility.yul\":2432:2438   */\n      dup3\n        /* \"#utility.yul\":2410:2439   */\n      tag_33\n      jump\t// in\n    tag_79:\n        /* \"#utility.yul\":2402:2439   */\n      swap1\n      pop\n        /* \"#utility.yul\":2494:2498   */\n      0x20\n        /* \"#utility.yul\":2488:2492   */\n      dup2\n        /* \"#utility.yul\":2484:2499   */\n      add\n        /* \"#utility.yul\":2476:2499   */\n      swap1\n      pop\n        /* \"#utility.yul\":2199:2506   */\n      swap2\n      swap1\n      pop\n      jump\t// out\n        /* \"#utility.yul\":2512:2658   */\n    tag_38:\n        /* \"#utility.yul\":2609:2615   */\n      dup3\n        /* \"#utility.yul\":2604:2607   */\n      dup2\n        /* \"#utility.yul\":2599:2602   */\n      dup4\n        /* \"#utility.yul\":2586:2616   */\n      calldatacopy\n        /* \"#utility.yul\":2650:2651   */\n      0x00\n        /* \"#utility.yul\":2641:2647   */\n      dup4\n        /* \"#utility.yul\":2636:2639   */\n      dup4\n        /* \"#utility.yul\":2632:2648   */\n      add\n        /* \"#utility.yul\":2625:2652   */\n      mstore\n        /* \"#utility.yul\":2512:2658   */\n      pop\n      pop\n      pop\n      jump\t// out\n        /* \"#utility.yul\":2664:3087   */\n    tag_39:\n        /* \"#utility.yul\":2741:2746   */\n      0x00\n        /* \"#utility.yul\":2766:2831   */\n      tag_82\n        /* \"#utility.yul\":2782:2830   */\n      tag_83\n        /* \"#utility.yul\":2823:2829   */\n      dup5\n        /* \"#utility.yul\":2782:2830   */\n      tag_37\n      jump\t// in\n    tag_83:\n        /* \"#utility.yul\":2766:2831   */\n      tag_36\n      jump\t// in\n    tag_82:\n        /* \"#utility.yul\":2757:2831   */\n      swap1\n      pop\n        /* \"#utility.yul\":2854:2860   */\n      dup3\n        /* \"#utility.yul\":2847:2852   */\n      dup2\n        /* \"#utility.yul\":2840:2861   */\n      mstore\n        /* \"#utility.yul\":2892:2896   */\n      0x20\n        /* \"#utility.yul\":2885:2890   */\n      dup2\n        /* \"#utility.yul\":2881:2897   */\n      add\n        /* \"#utility.yul\":2930:2933   */\n      dup5\n        /* \"#utility.yul\":2921:2927   */\n      dup5\n        /* \"#utility.yul\":2916:2919   */\n      dup5\n        /* \"#utility.yul\":2912:2928   */\n      add\n        /* \"#utility.yul\":2909:2934   */\n      gt\n        /* \"#utility.yul\":2906:3018   */\n      iszero\n      tag_84\n      jumpi\n        /* \"#utility.yul\":2937:3016   */\n      tag_85\n      tag_32\n      jump\t// in\n    tag_85:\n        /* \"#utility.yul\":2906:3018   */\n    tag_84:\n        /* \"#utility.yul\":3027:3081   */\n      tag_86\n        /* \"#utility.yul\":3074:3080   */\n      dup5\n        /* \"#utility.yul\":3069:3072   */\n      dup3\n        /* \"#utility.yul\":3064:3067   */\n      dup6\n        /* \"#utility.yul\":3027:3081   */\n      tag_38\n      jump\t// in\n    tag_86:\n        /* \"#utility.yul\":2747:3087   */\n      pop\n        /* \"#utility.yul\":2664:3087   */\n      swap4\n      swap3\n      pop\n      pop\n      pop\n      jump\t// out\n        /* \"#utility.yul\":3106:3444   */\n    tag_40:\n        /* \"#utility.yul\":3161:3166   */\n      0x00\n        /* \"#utility.yul\":3210:3213   */\n      dup3\n        /* \"#utility.yul\":3203:3207   */\n      0x1f\n        /* \"#utility.yul\":3195:3201   */\n      dup4\n        /* \"#utility.yul\":3191:3208   */\n      add\n        /* \"#utility.yul\":3187:3214   */\n      slt\n        /* \"#utility.yul\":3177:3299   */\n      tag_88\n      jumpi\n        /* \"#utility.yul\":3218:3297   */\n      tag_89\n      tag_31\n      jump\t// in\n    tag_89:\n        /* \"#utility.yul\":3177:3299   */\n    tag_88:\n        /* \"#utility.yul\":3335:3341   */\n      dup2\n        /* \"#utility.yul\":3322:3342   */\n      calldataload\n        /* \"#utility.yul\":3360:3438   */\n      tag_90\n        /* \"#utility.yul\":3434:3437   */\n      dup5\n        /* \"#utility.yul\":3426:3432   */\n      dup3\n        /* \"#utility.yul\":3419:3423   */\n      0x20\n        /* \"#utility.yul\":3411:3417   */\n      dup7\n        /* \"#utility.yul\":3407:3424   */\n      add\n        /* \"#utility.yul\":3360:3438   */\n      tag_39\n      jump\t// in\n    tag_90:\n        /* \"#utility.yul\":3351:3438   */\n      swap2\n      pop\n        /* \"#utility.yul\":3167:3444   */\n      pop\n        /* \"#utility.yul\":3106:3444   */\n      swap3\n      swap2\n      pop\n      pop\n      jump\t// out\n        /* \"#utility.yul\":3450:4263   */\n    tag_9:\n        /* \"#utility.yul\":3544:3550   */\n      0x00\n        /* \"#utility.yul\":3552:3558   */\n      dup1\n        /* \"#utility.yul\":3560:3566   */\n      0x00\n        /* \"#utility.yul\":3609:3611   */\n      0x60\n        /* \"#utility.yul\":3597:3606   */\n      dup5\n        /* \"#utility.yul\":3588:3595   */\n      dup7\n        /* \"#utility.yul\":3584:3607   */\n      sub\n        /* \"#utility.yul\":3580:3612   */\n      slt\n        /* \"#utility.yul\":3577:3696   */\n      iszero\n      tag_92\n      jumpi\n        /* \"#utility.yul\":3615:3694   */\n      tag_93\n      tag_22\n      jump\t// in\n    tag_93:\n        /* \"#utility.yul\":3577:3696   */\n    tag_92:\n        /* \"#utility.yul\":3735:3736   */\n      0x00\n        /* \"#utility.yul\":3760:3821   */\n      tag_94\n        /* \"#utility.yul\":3813:3820   */\n      dup7\n        /* \"#utility.yul\":3804:3810   */\n      dup3\n        /* \"#utility.yul\":3793:3802   */\n      dup8\n        /* \"#utility.yul\":3789:3811   */\n      add\n        /* \"#utility.yul\":3760:3821   */\n      tag_27\n      jump\t// in\n    tag_94:\n        /* \"#utility.yul\":3750:3821   */\n      swap4\n      pop\n        /* \"#utility.yul\":3706:3831   */\n      pop\n        /* \"#utility.yul\":3870:3872   */\n      0x20\n        /* \"#utility.yul\":3896:3949   */\n      tag_95\n        /* \"#utility.yul\":3941:3948   */\n      dup7\n        /* \"#utility.yul\":3932:3938   */\n      dup3\n        /* \"#utility.yul\":3921:3930   */\n      dup8\n        /* \"#utility.yul\":3917:3939   */\n      add\n        /* \"#utility.yul\":3896:3949   */\n      tag_30\n      jump\t// in\n    tag_95:\n        /* \"#utility.yul\":3886:3949   */\n      swap3\n      pop\n        /* \"#utility.yul\":3841:3959   */\n      pop\n        /* \"#utility.yul\":4026:4028   */\n      0x40\n        /* \"#utility.yul\":4015:4024   */\n      dup5\n        /* \"#utility.yul\":4011:4029   */\n      add\n        /* \"#utility.yul\":3998:4030   */\n      calldataload\n        /* \"#utility.yul\":4057:4075   */\n      0xffffffffffffffff\n        /* \"#utility.yul\":4049:4055   */\n      dup2\n        /* \"#utility.yul\":4046:4076   */\n      gt\n        /* \"#utility.yul\":4043:4160   */\n      iszero\n      tag_96\n      jumpi\n        /* \"#utility.yul\":4079:4158   */\n      tag_97\n      tag_23\n      jump\t// in\n    tag_97:\n        /* \"#utility.yul\":4043:4160   */\n    tag_96:\n        /* \"#utility.yul\":4184:4246   */\n      tag_98\n        /* \"#utility.yul\":4238:4245   */\n      dup7\n        /* \"#utility.yul\":4229:4235   */\n      dup3\n        /* \"#utility.yul\":4218:4227   */\n      dup8\n        /* \"#utility.yul\":4214:4236   */\n      add\n        /* \"#utility.yul\":4184:4246   */\n      tag_40\n      jump\t// in\n    tag_98:\n        /* \"#utility.yul\":4174:4246   */\n      swap2\n      pop\n        /* \"#utility.yul\":3969:4256   */\n      pop\n        /* \"#utility.yul\":3450:4263   */\n      swap3\n      pop\n      swap3\n      pop\n      swap3\n      jump\t// out\n        /* \"#utility.yul\":4269:4367   */\n    tag_41:\n        /* \"#utility.yul\":4320:4326   */\n      0x00\n        /* \"#utility.yul\":4354:4359   */\n      dup2\n        /* \"#utility.yul\":4348:4360   */\n      mload\n        /* \"#utility.yul\":4338:4360   */\n      swap1\n      pop\n        /* \"#utility.yul\":4269:4367   */\n      swap2\n      swap1\n      pop\n      jump\t// out\n        /* \"#utility.yul\":4373:4541   */\n    tag_42:\n        /* \"#utility.yul\":4456:4467   */\n      0x00\n        /* \"#utility.yul\":4490:4496   */\n      dup3\n        /* \"#utility.yul\":4485:4488   */\n      dup3\n        /* \"#utility.yul\":4478:4497   */\n      mstore\n        /* \"#utility.yul\":4530:4534   */\n      0x20\n        /* \"#utility.yul\":4525:4528   */\n      dup3\n        /* \"#utility.yul\":4521:4535   */\n      add\n        /* \"#utility.yul\":4506:4535   */\n      swap1\n      pop\n        /* \"#utility.yul\":4373:4541   */\n      swap3\n      swap2\n      pop\n      pop\n      jump\t// out\n        /* \"#utility.yul\":4547:4793   */\n    tag_43:\n        /* \"#utility.yul\":4628:4629   */\n      0x00\n        /* \"#utility.yul\":4638:4751   */\n    tag_102:\n        /* \"#utility.yul\":4652:4658   */\n      dup4\n        /* \"#utility.yul\":4649:4650   */\n      dup2\n        /* \"#utility.yul\":4646:4659   */\n      lt\n        /* \"#utility.yul\":4638:4751   */\n      iszero\n      tag_104\n      jumpi\n        /* \"#utility.yul\":4737:4738   */\n      dup1\n        /* \"#utility.yul\":4732:4735   */\n      dup3\n        /* \"#utility.yul\":4728:4739   */\n      add\n        /* \"#utility.yul\":4722:4740   */\n      mload\n        /* \"#utility.yul\":4718:4719   */\n      dup2\n        /* \"#utility.yul\":4713:4716   */\n      dup5\n        /* \"#utility.yul\":4709:4720   */\n      add\n        /* \"#utility.yul\":4702:4741   */\n      mstore\n        /* \"#utility.yul\":4674:4676   */\n      0x20\n        /* \"#utility.yul\":4671:4672   */\n      dup2\n        /* \"#utility.yul\":4667:4677   */\n      add\n        /* \"#utility.yul\":4662:4677   */\n      swap1\n      pop\n        /* \"#utility.yul\":4638:4751   */\n      jump(tag_102)\n    tag_104:\n        /* \"#utility.yul\":4785:4786   */\n      0x00\n        /* \"#utility.yul\":4776:4782   */\n      dup5\n        /* \"#utility.yul\":4771:4774   */\n      dup5\n        /* \"#utility.yul\":4767:4783   */\n      add\n        /* \"#utility.yul\":4760:4787   */\n      mstore\n        /* \"#utility.yul\":4609:4793   */\n      pop\n        /* \"#utility.yul\":4547:4793   */\n      pop\n      pop\n      pop\n      jump\t// out\n        /* \"#utility.yul\":4799:5172   */\n    tag_44:\n        /* \"#utility.yul\":4885:4888   */\n      0x00\n        /* \"#utility.yul\":4913:4951   */\n      tag_106\n        /* \"#utility.yul\":4945:4950   */\n      dup3\n        /* \"#utility.yul\":4913:4951   */\n      tag_41\n      jump\t// in\n    tag_106:\n        /* \"#utility.yul\":4967:5037   */\n      tag_107\n        /* \"#utility.yul\":5030:5036   */\n      dup2\n        /* \"#utility.yul\":5025:5028   */\n      dup6\n        /* \"#utility.yul\":4967:5037   */\n      tag_42\n      jump\t// in\n    tag_107:\n        /* \"#utility.yul\":4960:5037   */\n      swap4\n      pop\n        /* \"#utility.yul\":5046:5111   */\n      tag_108\n        /* \"#utility.yul\":5104:5110   */\n      dup2\n        /* \"#utility.yul\":5099:5102   */\n      dup6\n        /* \"#utility.yul\":5092:5096   */\n      0x20\n        /* \"#utility.yul\":5085:5090   */\n      dup7\n        /* \"#utility.yul\":5081:5097   */\n      add\n        /* \"#utility.yul\":5046:5111   */\n      tag_43\n      jump\t// in\n    tag_108:\n        /* \"#utility.yul\":5136:5165   */\n      tag_109\n        /* \"#utility.yul\":5158:5164   */\n      dup2\n        /* \"#utility.yul\":5136:5165   */\n      tag_33\n      jump\t// in\n    tag_109:\n        /* \"#utility.yul\":5131:5134   */\n      dup5\n        /* \"#utility.yul\":5127:5166   */\n      add\n        /* \"#utility.yul\":5120:5166   */\n      swap2\n      pop\n        /* \"#utility.yul\":4889:5172   */\n      pop\n        /* \"#utility.yul\":4799:5172   */\n      swap3\n      swap2\n      pop\n      pop\n      jump\t// out\n        /* \"#utility.yul\":5178:5487   */\n    tag_12:\n        /* \"#utility.yul\":5289:5293   */\n      0x00\n        /* \"#utility.yul\":5327:5329   */\n      0x20\n        /* \"#utility.yul\":5316:5325   */\n      dup3\n        /* \"#utility.yul\":5312:5330   */\n      add\n        /* \"#utility.yul\":5304:5330   */\n      swap1\n      pop\n        /* \"#utility.yul\":5376:5385   */\n      dup2\n        /* \"#utility.yul\":5370:5374   */\n      dup2\n        /* \"#utility.yul\":5366:5386   */\n      sub\n        /* \"#utility.yul\":5362:5363   */\n      0x00\n        /* \"#utility.yul\":5351:5360   */\n      dup4\n        /* \"#utility.yul\":5347:5364   */\n      add\n        /* \"#utility.yul\":5340:5387   */\n      mstore\n        /* \"#utility.yul\":5404:5480   */\n      tag_111\n        /* \"#utility.yul\":5475:5479   */\n      dup2\n        /* \"#utility.yul\":5466:5472   */\n      dup5\n        /* \"#utility.yul\":5404:5480   */\n      tag_44\n      jump\t// in\n    tag_111:\n        /* \"#utility.yul\":5396:5480   */\n      swap1\n      pop\n        /* \"#utility.yul\":5178:5487   */\n      swap3\n      swap2\n      pop\n      pop\n      jump\t// out\n        /* \"#utility.yul\":5493:5640   */\n    tag_45:\n        /* \"#utility.yul\":5594:5605   */\n      0x00\n        /* \"#utility.yul\":5631:5634   */\n      dup2\n        /* \"#utility.yul\":5616:5634   */\n      swap1\n      pop\n        /* \"#utility.yul\":5493:5640   */\n      swap3\n      swap2\n      pop\n      pop\n      jump\t// out\n        /* \"#utility.yul\":5646:6032   */\n    tag_46:\n        /* \"#utility.yul\":5750:5753   */\n      0x00\n        /* \"#utility.yul\":5778:5816   */\n      tag_114\n        /* \"#utility.yul\":5810:5815   */\n      dup3\n        /* \"#utility.yul\":5778:5816   */\n      tag_41\n      jump\t// in\n    tag_114:\n        /* \"#utility.yul\":5832:5920   */\n      tag_115\n        /* \"#utility.yul\":5913:5919   */\n      dup2\n        /* \"#utility.yul\":5908:5911   */\n      dup6\n        /* \"#utility.yul\":5832:5920   */\n      tag_45\n      jump\t// in\n    tag_115:\n        /* \"#utility.yul\":5825:5920   */\n      swap4\n      pop\n        /* \"#utility.yul\":5929:5994   */\n      tag_116\n        /* \"#utility.yul\":5987:5993   */\n      dup2\n        /* \"#utility.yul\":5982:5985   */\n      dup6\n        /* \"#utility.yul\":5975:5979   */\n      0x20\n        /* \"#utility.yul\":5968:5973   */\n      dup7\n        /* \"#utility.yul\":5964:5980   */\n      add\n        /* \"#utility.yul\":5929:5994   */\n      tag_43\n      jump\t// in\n    tag_116:\n        /* \"#utility.yul\":6019:6025   */\n      dup1\n        /* \"#utility.yul\":6014:6017   */\n      dup5\n        /* \"#utility.yul\":6010:6026   */\n      add\n        /* \"#utility.yul\":6003:6026   */\n      swap2\n      pop\n        /* \"#utility.yul\":5754:6032   */\n      pop\n        /* \"#utility.yul\":5646:6032   */\n      swap3\n      swap2\n      pop\n      pop\n      jump\t// out\n        /* \"#utility.yul\":6038:6309   */\n    tag_16:\n        /* \"#utility.yul\":6168:6171   */\n      0x00\n        /* \"#utility.yul\":6190:6283   */\n      tag_118\n        /* \"#utility.yul\":6279:6282   */\n      dup3\n        /* \"#utility.yul\":6270:6276   */\n      dup5\n        /* \"#utility.yul\":6190:6283   */\n      tag_46\n      jump\t// in\n    tag_118:\n        /* \"#utility.yul\":6183:6283   */\n      swap2\n      pop\n        /* \"#utility.yul\":6300:6303   */\n      dup2\n        /* \"#utility.yul\":6293:6303   */\n      swap1\n      pop\n        /* \"#utility.yul\":6038:6309   */\n      swap3\n      swap2\n      pop\n      pop\n      jump\t// out\n\n    auxdata: 0xa26469706673582212206d17ec1091e222e44a5be4d255d286c9ba8fd695f072e5bb1051c2f3ea287a5d64736f6c63430008100033\n}\n",
				"bytecode": {
					"linkReferences": {},
					"object": "608060405234801561001057600080fd5b50336000806101000a81548173ffffffffffffffffffffffffffffffffffffffff021916908373ffffffffffffffffffffffffffffffffffffffff1602179055506104d2806100606000396000f3fe6080604052600436106100225760003560e01c8063be45fd621461002e57610029565b3661002957005b600080fd5b34801561003a57600080fd5b5061005560048036038101906100509190610339565b61006b565b6040516100629190610427565b60405180910390f35b606060008054906101000a900473ffffffffffffffffffffffffffffffffffffffff1673ffffffffffffffffffffffffffffffffffffffff163373ffffffffffffffffffffffffffffffffffffffff16146100c557600080fd5b6000808573ffffffffffffffffffffffffffffffffffffffff1685856040516100ee9190610485565b60006040518083038185875af1925050503d806000811461012b576040519150601f19603f3d011682016040523d82523d6000602084013e610130565b606091505b50915091508161013f57600080fd5b80925050509392505050565b6000604051905090565b600080fd5b600080fd5b600073ffffffffffffffffffffffffffffffffffffffff82169050919050565b600061018a8261015f565b9050919050565b61019a8161017f565b81146101a557600080fd5b50565b6000813590506101b781610191565b92915050565b6000819050919050565b6101d0816101bd565b81146101db57600080fd5b50565b6000813590506101ed816101c7565b92915050565b600080fd5b600080fd5b6000601f19601f8301169050919050565b7f4e487b7100000000000000000000000000000000000000000000000000000000600052604160045260246000fd5b610246826101fd565b810181811067ffffffffffffffff821117156102655761026461020e565b5b80604052505050565b600061027861014b565b9050610284828261023d565b919050565b600067ffffffffffffffff8211156102a4576102a361020e565b5b6102ad826101fd565b9050602081019050919050565b82818337600083830152505050565b60006102dc6102d784610289565b61026e565b9050828152602081018484840111156102f8576102f76101f8565b5b6103038482856102ba565b509392505050565b600082601f8301126103205761031f6101f3565b5b81356103308482602086016102c9565b91505092915050565b60008060006060848603121561035257610351610155565b5b6000610360868287016101a8565b9350506020610371868287016101de565b925050604084013567ffffffffffffffff8111156103925761039161015a565b5b61039e8682870161030b565b9150509250925092565b600081519050919050565b600082825260208201905092915050565b60005b838110156103e25780820151818401526020810190506103c7565b60008484015250505050565b60006103f9826103a8565b61040381856103b3565b93506104138185602086016103c4565b61041c816101fd565b840191505092915050565b6000602082019050818103600083015261044181846103ee565b905092915050565b600081905092915050565b600061045f826103a8565b6104698185610449565b93506104798185602086016103c4565b80840191505092915050565b60006104918284610454565b91508190509291505056fea26469706673582212206d17ec1091e222e44a5be4d255d286c9ba8fd695f072e5bb1051c2f3ea287a5d64736f6c63430008100033",
					"opcodes": "PUSH1 0x80 PUSH1 0x40 MSTORE CALLVALUE DUP1 ISZERO PUSH2 0x10 JUMPI PUSH1 0x0 DUP1 REVERT JUMPDEST POP CALLER PUSH1 0x0 DUP1 PUSH2 0x100 EXP DUP2 SLOAD DUP2 PUSH20 0xFFFFFFFFFFFFFFFFFFFFFFFFFFFFFFFFFFFFFFFF MUL NOT AND SWAP1 DUP4 PUSH20 0xFFFFFFFFFFFFFFFFFFFFFFFFFFFFFFFFFFFFFFFF AND MUL OR SWAP1 SSTORE POP PUSH2 0x4D2 DUP1 PUSH2 0x60 PUSH1 0x0 CODECOPY PUSH1 0x0 RETURN INVALID PUSH1 0x80 PUSH1 0x40 MSTORE PUSH1 0x4 CALLDATASIZE LT PUSH2 0x22 JUMPI PUSH1 0x0 CALLDATALOAD PUSH1 0xE0 SHR DUP1 PUSH4 0xBE45FD62 EQ PUSH2 0x2E JUMPI PUSH2 0x29 JUMP JUMPDEST CALLDATASIZE PUSH2 0x29 JUMPI STOP JUMPDEST PUSH1 0x0 DUP1 REVERT JUMPDEST CALLVALUE DUP1 ISZERO PUSH2 0x3A JUMPI PUSH1 0x0 DUP1 REVERT JUMPDEST POP PUSH2 0x55 PUSH1 0x4 DUP1 CALLDATASIZE SUB DUP2 ADD SWAP1 PUSH2 0x50 SWAP2 SWAP1 PUSH2 0x339 JUMP JUMPDEST PUSH2 0x6B JUMP JUMPDEST PUSH1 0x40 MLOAD PUSH2 0x62 SWAP2 SWAP1 PUSH2 0x427 JUMP JUMPDEST PUSH1 0x40 MLOAD DUP1 SWAP2 SUB SWAP1 RETURN JUMPDEST PUSH1 0x60 PUSH1 0x0 DUP1 SLOAD SWAP1 PUSH2 0x100 EXP SWAP1 DIV PUSH20 0xFFFFFFFFFFFFFFFFFFFFFFFFFFFFFFFFFFFFFFFF AND PUSH20 0xFFFFFFFFFFFFFFFFFFFFFFFFFFFFFFFFFFFFFFFF AND CALLER PUSH20 0xFFFFFFFFFFFFFFFFFFFFFFFFFFFFFFFFFFFFFFFF AND EQ PUSH2 0xC5 JUMPI PUSH1 0x0 DUP1 REVERT JUMPDEST PUSH1 0x0 DUP1 DUP6 PUSH20 0xFFFFFFFFFFFFFFFFFFFFFFFFFFFFFFFFFFFFFFFF AND DUP6 DUP6 PUSH1 0x40 MLOAD PUSH2 0xEE SWAP2 SWAP1 PUSH2 0x485 JUMP JUMPDEST PUSH1 0x0 PUSH1 0x40 MLOAD DUP1 DUP4 SUB DUP2 DUP6 DUP8 GAS CALL SWAP3 POP POP POP RETURNDATASIZE DUP1 PUSH1 0x0 DUP2 EQ PUSH2 0x12B JUMPI PUSH1 0x40 MLOAD SWAP2 POP PUSH1 0x1F NOT PUSH1 0x3F RETURNDATASIZE ADD AND DUP3 ADD PUSH1 0x40 MSTORE RETURNDATASIZE DUP3 MSTORE RETURNDATASIZE PUSH1 0x0 PUSH1 0x20 DUP5 ADD RETURNDATACOPY PUSH2 0x130 JUMP JUMPDEST PUSH1 0x60 SWAP2 POP JUMPDEST POP SWAP2 POP SWAP2 POP DUP2 PUSH2 0x13F JUMPI PUSH1 0x0 DUP1 REVERT JUMPDEST DUP1 SWAP3 POP POP POP SWAP4 SWAP3 POP POP POP JUMP JUMPDEST PUSH1 0x0 PUSH1 0x40 MLOAD SWAP1 POP SWAP1 JUMP JUMPDEST PUSH1 0x0 DUP1 REVERT JUMPDEST PUSH1 0x0 DUP1 REVERT JUMPDEST PUSH1 0x0 PUSH20 0xFFFFFFFFFFFFFFFFFFFFFFFFFFFFFFFFFFFFFFFF DUP3 AND SWAP1 POP SWAP2 SWAP1 POP JUMP JUMPDEST PUSH1 0x0 PUSH2 0x18A DUP3 PUSH2 0x15F JUMP JUMPDEST SWAP1 POP SWAP2 SWAP1 POP JUMP JUMPDEST PUSH2 0x19A DUP2 PUSH2 0x17F JUMP JUMPDEST DUP2 EQ PUSH2 0x1A5 JUMPI PUSH1 0x0 DUP1 REVERT JUMPDEST POP JUMP JUMPDEST PUSH1 0x0 DUP2 CALLDATALOAD SWAP1 POP PUSH2 0x1B7 DUP2 PUSH2 0x191 JUMP JUMPDEST SWAP3 SWAP2 POP POP JUMP JUMPDEST PUSH1 0x0 DUP2 SWAP1 POP SWAP2 SWAP1 POP JUMP JUMPDEST PUSH2 0x1D0 DUP2 PUSH2 0x1BD JUMP JUMPDEST DUP2 EQ PUSH2 0x1DB JUMPI PUSH1 0x0 DUP1 REVERT JUMPDEST POP JUMP JUMPDEST PUSH1 0x0 DUP2 CALLDATALOAD SWAP1 POP PUSH2 0x1ED DUP2 PUSH2 0x1C7 JUMP JUMPDEST SWAP3 SWAP2 POP POP JUMP JUMPDEST PUSH1 0x0 DUP1 REVERT JUMPDEST PUSH1 0x0 DUP1 REVERT JUMPDEST PUSH1 0x0 PUSH1 0x1F NOT PUSH1 0x1F DUP4 ADD AND SWAP1 POP SWAP2 SWAP1 POP JUMP JUMPDEST PUSH32 0x4E487B7100000000000000000000000000000000000000000000000000000000 PUSH1 0x0 MSTORE PUSH1 0x41 PUSH1 0x4 MSTORE PUSH1 0x24 PUSH1 0x0 REVERT JUMPDEST PUSH2 0x246 DUP3 PUSH2 0x1FD JUMP JUMPDEST DUP2 ADD DUP2 DUP2 LT PUSH8 0xFFFFFFFFFFFFFFFF DUP3 GT OR ISZERO PUSH2 0x265 JUMPI PUSH2 0x264 PUSH2 0x20E JUMP JUMPDEST JUMPDEST DUP1 PUSH1 0x40 MSTORE POP POP POP JUMP JUMPDEST PUSH1 0x0 PUSH2 0x278 PUSH2 0x14B JUMP JUMPDEST SWAP1 POP PUSH2 0x284 DUP3 DUP3 PUSH2 0x23D JUMP JUMPDEST SWAP2 SWAP1 POP JUMP JUMPDEST PUSH1 0x0 PUSH8 0xFFFFFFFFFFFFFFFF DUP3 GT ISZERO PUSH2 0x2A4 JUMPI PUSH2 0x2A3 PUSH2 0x20E JUMP JUMPDEST JUMPDEST PUSH2 0x2AD DUP3 PUSH2 0x1FD JUMP JUMPDEST SWAP1 POP PUSH1 0x20 DUP2 ADD SWAP1 POP SWAP2 SWAP1 POP JUMP JUMPDEST DUP3 DUP2 DUP4 CALLDATACOPY PUSH1 0x0 DUP4 DUP4 ADD MSTORE POP POP POP JUMP JUMPDEST PUSH1 0x0 PUSH2 0x2DC PUSH2 0x2D7 DUP5 PUSH2 0x289 JUMP JUMPDEST PUSH2 0x26E JUMP JUMPDEST SWAP1 POP DUP3 DUP2 MSTORE PUSH1 0x20 DUP2 ADD DUP5 DUP5 DUP5 ADD GT ISZERO PUSH2 0x2F8 JUMPI PUSH2 0x2F7 PUSH2 0x1F8 JUMP JUMPDEST JUMPDEST PUSH2 0x303 DUP5 DUP3 DUP6 PUSH2 0x2BA JUMP JUMPDEST POP SWAP4 SWAP3 POP POP POP JUMP JUMPDEST PUSH1 0x0 DUP3 PUSH1 0x1F DUP4 ADD SLT PUSH2 0x320 JUMPI PUSH2 0x31F PUSH2 0x1F3 JUMP JUMPDEST JUMPDEST DUP2 CALLDATALOAD PUSH2 0x330 DUP5 DUP3 PUSH1 0x20 DUP7 ADD PUSH2 0x2C9 JUMP JUMPDEST SWAP2 POP POP SWAP3 SWAP2 POP POP JUMP JUMPDEST PUSH1 0x0 DUP1 PUSH1 0x0 PUSH1 0x60 DUP5 DUP7 SUB SLT ISZERO PUSH2 0x352 JUMPI PUSH2 0x351 PUSH2 0x155 JUMP JUMPDEST JUMPDEST PUSH1 0x0 PUSH2 0x360 DUP7 DUP3 DUP8 ADD PUSH2 0x1A8 JUMP JUMPDEST SWAP4 POP POP PUSH1 0x20 PUSH2 0x371 DUP7 DUP3 DUP8 ADD PUSH2 0x1DE JUMP JUMPDEST SWAP3 POP POP PUSH1 0x40 DUP5 ADD CALLDATALOAD PUSH8 0xFFFFFFFFFFFFFFFF DUP2 GT ISZERO PUSH2 0x392 JUMPI PUSH2 0x391 PUSH2 0x15A JUMP JUMPDEST JUMPDEST PUSH2 0x39E DUP7 DUP3 DUP8 ADD PUSH2 0x30B JUMP JUMPDEST SWAP2 POP POP SWAP3 POP SWAP3 POP SWAP3 JUMP JUMPDEST PUSH1 0x0 DUP2 MLOAD SWAP1 POP SWAP2 SWAP1 POP JUMP JUMPDEST PUSH1 0x0 DUP3 DUP3 MSTORE PUSH1 0x20 DUP3 ADD SWAP1 POP SWAP3 SWAP2 POP POP JUMP JUMPDEST PUSH1 0x0 JUMPDEST DUP4 DUP2 LT ISZERO PUSH2 0x3E2 JUMPI DUP1 DUP3 ADD MLOAD DUP2 DUP5 ADD MSTORE PUSH1 0x20 DUP2 ADD SWAP1 POP PUSH2 0x3C7 JUMP JUMPDEST PUSH1 0x0 DUP5 DUP5 ADD MSTORE POP POP POP POP JUMP JUMPDEST PUSH1 0x0 PUSH2 0x3F9 DUP3 PUSH2 0x3A8 JUMP JUMPDEST PUSH2 0x403 DUP2 DUP6 PUSH2 0x3B3 JUMP JUMPDEST SWAP4 POP PUSH2 0x413 DUP2 DUP6 PUSH1 0x20 DUP7 ADD PUSH2 0x3C4 JUMP JUMPDEST PUSH2 0x41C DUP2 PUSH2 0x1FD JUMP JUMPDEST DUP5 ADD SWAP2 POP POP SWAP3 SWAP2 POP POP JUMP JUMPDEST PUSH1 0x0 PUSH1 0x20 DUP3 ADD SWAP1 POP DUP2 DUP2 SUB PUSH1 0x0 DUP4 ADD MSTORE PUSH2 0x441 DUP2 DUP5 PUSH2 0x3EE JUMP JUMPDEST SWAP1 POP SWAP3 SWAP2 POP POP JUMP JUMPDEST PUSH1 0x0 DUP2 SWAP1 POP SWAP3 SWAP2 POP POP JUMP JUMPDEST PUSH1 0x0 PUSH2 0x45F DUP3 PUSH2 0x3A8 JUMP JUMPDEST PUSH2 0x469 DUP2 DUP6 PUSH2 0x449 JUMP JUMPDEST SWAP4 POP PUSH2 0x479 DUP2 DUP6 PUSH1 0x20 DUP7 ADD PUSH2 0x3C4 JUMP JUMPDEST DUP1 DUP5 ADD SWAP2 POP POP SWAP3 SWAP2 POP POP JUMP JUMPDEST PUSH1 0x0 PUSH2 0x491 DUP3 DUP5 PUSH2 0x454 JUMP JUMPDEST SWAP2 POP DUP2 SWAP1 POP SWAP3 SWAP2 POP POP JUMP INVALID LOG2 PUSH5 0x6970667358 0x22 SLT KECCAK256 PUSH14 0x17EC1091E222E44A5BE4D255D286 0xC9 0xBA DUP16 0xD6 SWAP6 CREATE PUSH19 0xE5BB1051C2F3EA287A5D64736F6C6343000810 STOP CALLER "
				},
				"gasEstimates": {
					"creation": {
						"codeDepositCost": "246800",
						"executionCost": "24553",
						"totalCost": "271353"
					},
					"external": {
						"transfer(address,uint256,bytes)": "infinite"
					}
				},
				"methodIdentifiers": {
					"transfer(address,uint256,bytes)": "be45fd62"
				}
			},
			"storageLayout": {
				"storage": [
					{
						"astId": 3,
						"contract": "contracts/Section5Project.sol:SmartWallet",
						"label": "owner",
						"offset": 0,
						"slot": "0",
						"type": "t_address_payable"
					}
				],
				"types": {
					"t_address_payable": {
						"encoding": "inplace",
						"label": "address payable",
						"numberOfBytes": "20"
					}
				}
			},
			"userdoc": {
				"kind": "user",
				"methods": {},
				"version": 1
			}
		}
	}
}